:100000000C945F000C9487000C9487000C9487007C
:100010000C9487000C9487000C9487000C94870044
:100020000C9487000C9487000C9487000C94870034
:100030000C9487000C9487000C9487000C94870024
:100040000C9496060C9487000C940B030C943D03BF
:100050000C9487000C9487000C9487000C94870004
:100060000C9487000C948700000000080002010037
:100070000003040700000000000000000102040863
:100080001020408001020408102001020408102002
:10009000040404040404040402020202020203032E
:1000A0000303030300000000250028002B000000CC
:1000B0000000240027002A00FC006D030201112427
:1000C0001FBECFEFD8E0DEBFCDBF11E0A0E0B1E0B2
:1000D000EEEFF4E102C005900D92A435B107D9F717
:1000E00022E0A4E5B1E001C01D92A630B207E1F71D
:1000F00010E0CCEBD0E004C02297FE010E94D707AD
:10010000C83BD107C9F70E9487060C94720A0C9469
:1001100000000F931F93CF93DF9326E040E855E252
:1001200060E070E08CE591E00E94A90268EC70E06C
:1001300085E591E00E94290508E011E0C0E0D0E0EB
:100140008091060190910701C817D9074CF4F80176
:1001500080810E5F1F4F61E00E9444072196F0CF1F
:10016000DF91CF911F910F910895CF92DF92EF927F
:10017000FF920F931F93CF93DF93CDB7DEB7CDB62A
:10018000DEB64091590150915A014F5F5F4F8DB7D4
:100190009EB7841B950B0FB6F8949EBF0FBE8DBF04
:1001A0000DB71EB70F5F1F4F20E030E0B80185E5A7
:1001B00091E00E94F20578018091590190915A01D5
:1001C0009701201B310B2817390740F4F701619183
:1001D0007F018CE591E00E942B04EECF0FB6F894DE
:1001E000DEBE0FBECDBEDF91CF911F910F91FF906C
:1001F000EF90DF90CF90089565E471E085E591E0A0
:100200000C94660585E591E00C94F804CF93C1E069
:100210008CE591E00E94C601892B99F08CE591E074
:100220000E94DF018A3039F4C093540185E591E0E2
:100230000E941C06EDCF682F85E591E00E94C00565
:10024000E7CFCF910895EF92FF920F931F93CF9333
:10025000DF9300D000D000D0CDB7DEB70E940601FA
:1002600080915401882309F46BC065E571E08CE549
:1002700091E00E9407040E94B500809155018337E8
:1002800041F565E471E0CE0101960E94660560913A
:100290005701CE0101960E94C00560915801CE0120
:1002A00001960E94C00500915601112707FD109587
:1002B00000531109CE0101960E947B06AB01B801E3
:1002C0008CE591E00E94E004CE0101960E94F804C2
:1002D00011C0873629F44AE050E066E170E006C0BC
:1002E000863641F44AE050E063E373E38CE591E045
:1002F0000E94E0046CE071E085E591E00E94D30586
:10030000882331F081E080935B016FE071E00CC0E5
:1003100060E271E085E591E00E94D305882341F019
:1003200010925B0164E271E08CE591E00E94190497
:1003300065E471E085E591E00E947C05109254012E
:1003400088E0E82E81E0F82E00E010E080910601C0
:10035000909107010817190764F4F7018081F2E012
:10036000EF0EF11C60915B010E947D070F5F1F4F34
:10037000EDCF26960FB6F894DEBF0FBECDBFDF914E
:10038000CF911F910F91FF90EF900895FC01818D07
:10039000228D90E0805C9F4F821B91098F7399277B
:1003A0000895FC01918D828D981731F0828DE80FB0
:1003B000F11D858D90E008958FEF9FEF0895FC016A
:1003C000918D828D981761F0828DDF01A80FB11D8C
:1003D0005D968C91928D9F5F9F73928F90E00895B0
:1003E0008FEF9FEF089583E693E0892B49F086E035
:1003F00091E0892B29F00E94630381110C9406017E
:100400000895FC01848DDF01A80FB11DA35ABF4FD1
:100410002C91848D90E001968F739927848FA68903
:10042000B7892C93A089B1898C9180648C93938D2A
:10043000848D981306C00288F389E02D80818F7D1A
:1004400080830895CF93DF93EC01888D8823C9F0D2
:10045000EA89FB89808185FD05C0A889B9898C91CD
:1004600086FD0FC00FB607FCF5CF808185FFF2CF68
:10047000A889B9898C9185FFEDCFCE010E94010238
:10048000E7CFDF91CF910895CF92DF92FF920F9344
:100490001F93CF93DF931F92CDB7DEB76C0181E03E
:1004A000D60158968C9358975B969C915B975C9677
:1004B0008C915C97981307C05096ED91FC915197E1
:1004C000808185FD2EC0F601038D10E00F5F1F4F68
:1004D0000F731127F02EF601848DF81211C00FB69C
:1004E00007FCF9CFD6015096ED91FC915197808190
:1004F00085FFF1CFC60169830E9401026981EBCFBC
:10050000838DE80FF11DE35AFF4F6083D6015B96A0
:100510000C935B975296ED91FC915397808180628A
:100520000CC0D6015696ED91FC915797608350967A
:10053000ED91FC91519780818064808381E090E00F
:100540000F90DF91CF911F910F91FF90DF90CF908F
:100550000895BF92CF92DF92EF92FF92CF93DF93F5
:10056000EC016A017B01B22EE889F98982E080837F
:10057000411581EE580761057105A1F060E079E051
:100580008DE390E0A70196010E94B3072150310945
:10059000410951095695479537952795211580E1D1
:1005A000380798F0E889F989108260E874E88EE1EC
:1005B00090E0A70196010E94B3072150310941093B
:1005C00051095695479537952795EC85FD853083DC
:1005D000EE85FF852083188EEC89FD89B082EA893B
:1005E000FB89808180618083EA89FB8980818860C2
:1005F0008083EA89FB89808180688083EA89FB891E
:1006000080818F7D8083DF91CF91FF90EF90DF908D
:10061000CF90BF9008951F920F920FB60F921124A2
:100620002F938F939F93EF93FF93E0916C01F09141
:100630006D018081E0917201F091730182FD12C021
:100640009081809175018F5F8F7320917601821761
:1006500051F0E0917501F0E0E45AFE4F958F8093E0
:10066000750101C08081FF91EF919F918F912F9132
:100670000F900FBE0F901F9018951F920F920FB6FC
:100680000F9211242F933F934F935F936F937F9318
:100690008F939F93AF93BF93EF93FF938CE591E07C
:1006A0000E940102FF91EF91BF91AF919F918F91B5
:1006B0007F916F915F914F913F912F910F900FBE5E
:1006C0000F901F9018958CE591E00E94C60121E0E3
:1006D000892B09F420E0822F089510925F01109277
:1006E0005E0188EE93E0A0E0B0E08093600190931B
:1006F0006101A0936201B093630187E391E090935D
:100700005D0180935C0185EC90E09093690180939A
:10071000680184EC90E090936B0180936A0180EC17
:1007200090E090936D0180936C0181EC90E0909348
:100730006F0180936E0182EC90E090937101809341
:10074000700186EC90E09093730180937201109297
:100750007501109276011092770110927801089538
:10076000CF92DF92EF92FF920F931F93CF93DF937D
:100770006C017A01EB01E60EF71E00E010E0CE15E9
:10078000DF0561F06991D601ED91FC910190F08156
:10079000E02DC6010995080F191FF1CFC801DF919F
:1007A000CF911F910F91FF90EF90DF90CF90089520
:1007B0006115710581F0DB010D900020E9F7AD01B5
:1007C00041505109461B570BDC01ED91FC91028011
:1007D000F381E02D099480E090E00895DC01ED9133
:1007E000FC91DB0114964D915C9115976D917C9174
:1007F0000280F381E02D0994DC01ED91FC910190E0
:10080000F081E02D099463E471E00C94D8030F9318
:100810001F93CF93DF93EC010E94EE038C01CE0176
:100820000E940304800F911FDF91CF911F910F91C0
:1008300008950F931F93CF93DF93EC010E94D80389
:100840008C01CE010E940304800F911FDF91CF9194
:100850001F910F9108950F931F93CF93DF93EC0196
:100860000E94FC038C01CE010E940304800F911FA3
:10087000DF91CF911F910F9108958F929F92AF9228
:10088000BF92CF92DF92EF92FF920F931F93CF937D
:10089000DF93CDB7DEB7A1970FB6F894DEBF0FBEDA
:1008A000CDBF7C01C42EE52FCB01D22E19A221E0B1
:1008B0002D1510F02AE0D22E8E010F5D1F4F8D2CCA
:1008C000912CA12CB12C6C2D7E2FA50194010E949E
:1008D000B3078C2DD29E80191124015011098A3042
:1008E00014F4805D01C0895CF80180832115310515
:1008F0004105510521F0C22EE32FCA01E4CFB80112
:10090000C7010E94D803A1960FB6F894DEBF0FBEB0
:10091000CDBFDF91CF911F910F91FF90EF90DF90AE
:10092000CF90BF90AF909F908F900895CF92DF921D
:10093000EF92FF920F931F93CF93DF93EC016A0125
:100940007B012115310579F4E881F9810190F0816D
:10095000E02D642FDF91CF911F910F91FF90EF90C9
:10096000DF90CF9009942A303105E9F477FF1AC05F
:100970006DE20E94FC038C0144275527BA014C19F3
:100980005D096E097F092AE0CE010E943D04800FB7
:10099000911FDF91CF911F910F91FF90EF90DF900A
:1009A000CF9008952AE0B701A601CE01DF91CF9143
:1009B0001F910F91FF90EF90DF90CF900C943D042A
:1009C0000F931F93CF93DF93EC019A01AB0166273E
:1009D00057FD6095762F0E9496048C01CE010E94EF
:1009E0000304800F911FDF91CF911F910F91089504
:1009F000FC01808191810C947308CF93DF93EC010B
:100A000088819981009711F00E94730819821882D9
:100A10001D821C821B821A82DF91CF9108950F9351
:100A20001F93CF93DF93EC018B016F5F7F4F888122
:100A300099810E940209009731F0998388831B8372
:100A40000A8381E001C080E0DF91CF911F910F9177
:100A50000895CF93DF93EC0188819981892B29F048
:100A60008A819B818617970760F4CE010E940F054B
:100A7000882341F08C819D81892B19F4E881F981CB
:100A8000108281E0DF91CF910895EF92FF920F9352
:100A90001F93CF93DF93EC017B018A01BA010E947F
:100AA0002905811104C0CE010E94FD0407C01D83E9
:100AB0000C83B701888199810E940D0ACE01DF91D4
:100AC000CF911F910F91FF90EF900895FC0111823B
:100AD000108213821282158214826115710559F0F9
:100AE000FB0101900020E9F7AF0141505109461B7D
:100AF000570B0C9445050895CF93DF93EC016115D6
:100B0000710561F0FB0101900020E9F7AF01415050
:100B10005109461B570B0E94450502C00E94FD0467
:100B2000CE01DF91CF910895EF92FF920F931F9323
:100B3000CF93DF93EC017B010C811D816115710561
:100B400011F480E016C04115510591F0040F151FF6
:100B5000B8010E9429058823A1F3288139818C815D
:100B60009D81B701820F931F0E940D0A1D830C8384
:100B700081E0DF91CF911F910F91FF90EF90089549
:100B8000CF93DF9300D0CDB7DEB769831A8241E0FF
:100B900050E0BE016F5F7F4F0E9494050F900F9051
:100BA000DF91CF910895FC0124813581232B31F40D
:100BB00021E061157105A1F0FB0108C0FC018081F5
:100BC00091816115710531F421E0FC018081882358
:100BD00039F005C00E94040A21E0892B09F020E0C9
:100BE000822F08950F931F93CF93DF93EB0141154D
:100BF0005105E9F02097D9F0FC0164817581261731
:100C00003707A0F4621B730B8A01015011096017AA
:100C1000710708F48B01FC0160817181620F731F01
:100C2000A801CE010E94140AC00FD11F1882DF91C3
:100C3000CF911F910F910895AF92BF92CF92DF9203
:100C4000EF92FF920F931F93CF93DF937C01DC0110
:100C5000CD90DC901197C114D10409F441C01496D1
:100C6000CD91DC9115972097D9F156018501BFEF01
:100C7000AB1ABB0AF8018081992787FD90950E94E5
:100C8000F309892B99F72197CC0DDD1D88819927D0
:100C900087FD90950E94F309892B91F4AE014F5F77
:100CA0005F4F401B510BD70115965C934E931497E1
:100CB000C016D10650F4B801C6010E94FB0905C058
:100CC000C017D10758F32197E1CFD701ED91FC91DF
:100CD000119714968D919C911597E80FF91F10822A
:100CE000DF91CF911F910F91FF90EF90DF90CF9008
:100CF000BF90AF900895FC0180819181009711F021
:100D00000C94CC0960E070E0CB01089508950E9436
:100D1000E0060E9486060E948900C3EFD1E00E948F
:100D200023012097E1F30E94F301F9CF1F920F9264
:100D30000FB60F9211242F933F938F939F93AF93EE
:100D4000BF938091FA019091FB01A091FC01B091B9
:100D5000FD013091F90123E0230F2D3720F4019696
:100D6000A11DB11D05C026E8230F0296A11DB11DCE
:100D70002093F9018093FA019093FB01A093FC0169
:100D8000B093FD018091FE019091FF01A0910002BE
:100D9000B09101020196A11DB11D8093FE019093B7
:100DA000FF01A0930002B0930102BF91AF919F9108
:100DB0008F913F912F910F900FBE0F901F9018951C
:100DC000789484B5826084BD84B5816084BD85B526
:100DD000826085BD85B5816085BDEEE6F0E08081ED
:100DE00081608083E1E8F0E010828081826080830E
:100DF000808181608083E0E8F0E080818160808391
:100E0000E1EBF0E0808184608083E0EBF0E08081C2
:100E100081608083EAE7F0E0808184608083808164
:100E2000826080838081816080838081806880830C
:100E30001092C1000895833081F028F4813099F038
:100E40008230A1F008958730A9F08830B9F084305D
:100E5000D1F4809180008F7D03C0809180008F77D6
:100E600080938000089584B58F7702C084B58F7D0C
:100E700084BD08958091B0008F7703C08091B00049
:100E80008F7D8093B0000895CF93DF9390E0FC01B5
:100E9000E458FF4F2491FC01E057FF4F84918823D1
:100EA00049F190E0880F991FFC01E255FF4FA59191
:100EB000B4918C559F4FFC01C591D4919FB761119E
:100EC00008C0F8948C91209582238C93888182238A
:100ED0000AC0623051F4F8948C91322F30958323FC
:100EE0008C938881822B888304C0F8948C91822B08
:100EF0008C939FBFDF91CF9108950F931F93CF9352
:100F0000DF931F92CDB7DEB7282F30E0F901E85903
:100F1000FF4F8491F901E458FF4F1491F901E05714
:100F2000FF4F04910023C9F0882321F069830E94B8
:100F30001B076981E02FF0E0EE0FFF1FEC55FF4F1C
:100F4000A591B4919FB7F8948C91611103C010954D
:100F5000812301C0812B8C939FBF0F90DF91CF9194
:100F60001F910F910895A1E21A2EAA1BBB1BFD0130
:100F70000DC0AA1FBB1FEE1FFF1FA217B307E40778
:100F8000F50720F0A21BB30BE40BF50B661F771FD0
:100F9000881F991F1A9469F76095709580959095B0
:100FA0009B01AC01BD01CF010895EE0FFF1F05901D
:100FB000F491E02D0994CF93DF938230910510F4E2
:100FC00082E090E0E0910402F091050220E030E040
:100FD000A0E0B0E0309739F14081518148175907BE
:100FE000B8F04817590771F482819381109729F05E
:100FF00013969C938E9312972CC090930502809326
:10100000040227C02115310531F04217530718F0AB
:10101000A901DB0101C0EF019A01BD01DF010280DE
:10102000F381E02DD7CF21153105F9F0281B390BBD
:101030002430310580F48A819B816115710521F08E
:10104000FB019383828304C0909305028093040282
:10105000FE01329644C0FE01E20FF31F819391938B
:1010600022503109398328833AC0209102023091FD
:101070000302232B41F420910201309103013093AC
:1010800003022093020220910001309101012115F9
:10109000310541F42DB73EB740910401509105014F
:1010A000241B350BE0910202F0910302E217F307D3
:1010B000A0F42E1B3F0B2817390778F0AC014E5FC8
:1010C0005F4F2417350748F04E0F5F1F5093030200
:1010D000409302028193919302C0E0E0F0E0CF01DF
:1010E000DF91CF910895CF93DF93009709F487C0E4
:1010F000FC01329713821282C0910402D091050242
:10110000209781F420813181280F391F80910202BC
:10111000909103028217930779F5F0930302E0930D
:1011200002026DC0DE0120E030E0AE17BF0750F4D0
:1011300012964D915C9113979D014115510509F14E
:10114000DA01F3CFB383A28340815181840F951FCD
:101150008A179B0771F48D919C911197840F951FAD
:1011600002969183808312968D919C91139793831D
:1011700082832115310529F4F0930502E0930402DE
:101180003EC0D9011396FC93EE9312974D915D9159
:10119000A40FB51FEA17FB0779F480819181840FB2
:1011A000951F0296D90111969C938E93828193810B
:1011B00013969C938E931297E0E0F0E08A819B81D6
:1011C000009719F0FE01EC01F9CFCE0102962881BB
:1011D0003981820F931F2091020230910302281758
:1011E000390769F4309729F410920502109204022D
:1011F00002C013821282D0930302C0930202DF91D5
:10120000CF910895A0E0B0E0E8E0F9E00C943F0A47
:10121000EC01CB01209719F40E94DB07B8C0FE0156
:10122000E60FF71F9E0122503109E217F30708F479
:10123000ACC0D9010D911C91119706171707B8F092
:101240000530110508F49FC0A80144505109461704
:10125000570708F498C002501109061B170B019399
:1012600011936D937C93CF010E9473088CC05B0136
:10127000A01AB10A4E01800E911EA0910402B091F5
:101280000502612C712C60E070E0109709F449C0F0
:10129000A815B905C9F5ED90FC901197670142E0DA
:1012A000C40ED11CCA14DB0478F147018A189B08CC
:1012B000640142E0C40ED11C1296BC9012971396A2
:1012C000AC91B5E0CB16D10440F0B282A3839182F9
:1012D0008082D9018D939C9309C00E5F1F4F0E0D24
:1012E0001F1DF90111830083EB2DFA2F6115710584
:1012F00031F0DB011396FC93EE93129744C0F09308
:101300000502E09304023FC06D917C91119766162F
:10131000770608F43B01BD0112960D90BC91A02DFB
:10132000B4CF609102027091030268157905E9F467
:1013300068167906D0F440910001509101014115E1
:10134000510541F44DB75EB76091040170910501FC
:10135000461B570BE417F507C0F4F0930302E09324
:101360000202F901918380830EC00E94DB077C0199
:10137000009759F0A801BE010E94FB09CE010E940E
:101380007308C70104C0CE0102C080E090E0CDB771
:10139000DEB7EEE00C945B0A1F93FC0199278827C7
:1013A000BC01E89411911032E9F3193010F01E30AD
:1013B000C8F31B3251F01D3249F4689406C00E94F4
:1013C000230A610F711D811D911D119110531A3057
:1013D000B0F33EF490958095709561957F4F8F4F57
:1013E0009F4F1F910895911143C0803219F0895089
:1013F0008550D0F70895FB01DC0102C001900D92E9
:1014000041505040D8F70895FB01DC018D910190C7
:1014100080190110D9F3990B0895FB01DC010190AB
:101420000D920020E1F70895FB01DC01415050408E
:1014300048F001900D920020C9F701C01D92415063
:101440005040E0F70895592F482F372F262F660F69
:10145000771F881F991F660F771F881F991F620FBC
:10146000731F841F951F660F771F881F991F08958C
:101470009927882708952F923F924F925F926F92FB
:101480007F928F929F92AF92BF92CF92DF92EF9214
:10149000FF920F931F93CF93DF93CDB7DEB7CA1B95
:1014A000DB0B0FB6F894DEBF0FBECDBF09942A88C0
:1014B000398848885F846E847D848C849B84AA8468
:1014C000B984C884DF80EE80FD800C811B81AA81F5
:1014D000B981CE0FD11D0FB6F894DEBF0FBECDBFC0
:1014E000ED01089510E0CCEBD0E004C0FE010E94B5
:0E14F000D7072296CE3BD107C9F7F894FFCF5D
:1014FE0000000602800003000B000A006F6E004C15
:10150E007563657320456E63656E6469646173000F
:10151E006F6666004C756365732041706167616428
:10152E00617300000000004402B003C601DF01D168
:10153E000122020D0A006E616E00696E66006F7602
:04154E0066002E0005
:00000001FF
